:100000000C942A000C9447000C9447000C94470071
:100010000C9425030C9447000C9447000C944C035B
:100020000C9447000C9447000C94FE020C9447007B
:100030000C9447000C9447000C9447000C94470024
:100040000C9447000C9447000C9447000C94470014
:100050000C94470011241FBECFE5D8E0DEBFCDBF12
:1000600010E0A0E6B0E0ECE8FAE002C005900D92E6
:10007000AC37B107D9F720E0ACE7B0E001C01D9282
:10008000A238B207E1F70E9466000C9444050C9474
:100090000000862F672F41E00E94C3000895862F3D
:1000A000672F0E940201089560916F0070917000A7
:1000B000809171000E944F00089560916C007091D2
:1000C0006D0080916E000E944F000895409166007F
:1000D00050916700609168007091690080916A009A
:1000E00090916B000E94930160916F00709170007D
:1000F000809171000E944900409160005091610020
:10010000609162007091630080916400909165003D
:100110000E94930160916C0070916D0080916E005F
:100120000E9449000F2EF4E5EF2EF0E0FF2EF02D97
:10013000009166001091670020916800309169007D
:1001400040916A0050916B006AE979E989E99EE380
:100150000E94D2010F2EFDE5EF2EF0E0FF2EF02DD4
:100160000091600010916100209162003091630065
:1001700040916400509165006DEC7CEC8CEC9DE34B
:100180000E94D201FFCF413069F4E82FF0E02291C4
:1001900081E090E002C0880F991F6A95E2F7822BF8
:1001A00080830895411116C0E82FF0E0DF012E9101
:1001B00081E090E002C0880F991F6A95E2F7982FBE
:1001C000909592239C9390B7946090BF9081892BD7
:1001D000808308954230A9F4E82FF0E0DF012E91EA
:1001E00081E090E002C0880F991F6A95E2F7982F8E
:1001F000909592239C9390B79B7F90BF9081892B81
:1002000080830895E82FF0E0808121E030E002C093
:10021000220F331F6A95E2F7282720830895813043
:10022000910551F483B7816083BF83B78D7F83BF0E
:1002300083B78B7F83BF08958830910551F483B7CE
:100240008E7F83BF83B7826083BF83B78B7F83BF7B
:1002500008958034910551F483B7816083BF83B7DB
:10026000826083BF83B78B7F83BF0895811521E0B0
:10027000920751F483B78E7F83BF83B78D7F83BF8F
:1002800083B7846083BF08958115944049F483B790
:10029000816083BF83B78D7F83BF83B7846083BF53
:1002A00008958130910551F48EB581608EBD8EB573
:1002B0008D7F8EBD8EB58B7F8EBD08958830910564
:1002C00051F48EB58E7F8EBD8EB582608EBD8EB59B
:1002D0008B7F8EBD08958034910551F48EB5816079
:1002E0008EBD8EB582608EBD8EB58B7F8EBD08951E
:1002F000811521E0920751F48EB58E7F8EBD8EB5AB
:100300008D7F8EBD8EB584608EBD0895811594401D
:1003100049F48EB581608EBD8EB58D7F8EBD8EB554
:1003200084608EBD0895CF93DF9300D000D000D0BD
:10033000CDB7DEB749835A836B837C838D839E83DD
:10034000911104C0E42FF0E0108223C0913089F4B1
:100350008981833519F487B3886087BB89818534A7
:1003600019F481B3806881BBE981F0E089E680837C
:1003700010C0923071F4E981EF3441F41FBC8EB5A6
:1003800088608EBD8EB58F7E8EBD03C0F0E088E0A4
:10039000808326960FB6F894DEBF0FBECDBFDF91E7
:1003A000CF9108954F925F926F927F928F929F921A
:1003B000AF92BF92CF92DF92EF92FF920F931F9373
:1003C000CF93DF9300D000D000D0CDB7DEB7098344
:1003D0001A832B833C834D835E83523009F0F0C037
:1003E00097016B017C018FB780688FBF89B78260EE
:1003F00089BF8981833509F063C030937D002093E4
:100400007C0010E033C06A817B818C819D810E94D9
:100410002004A70196010E94D7042B013C01E12F83
:10042000F0E0EE0FFF1FEE58FF4FA080B180B50146
:1004300080E090E00E9420049B01AC01C301B20166
:100440000E9478032B013C0120E030E04FE753E4A9
:100450000E94730388234CF420E030E0A901C3011B
:10046000B2010E94D20418163CF01F5F153058F2FA
:1004700001E010E080E002C0850181E0882309F4FA
:10048000A1C0C8010E940F016A817B818C819D817E
:100490000E942004A70196010E94D7046B017C01F1
:1004A000B80180E090E00E9420049B01AC01C701EC
:1004B000B6010E9478030E94EA036CBF81E087C006
:1004C00089B7806189BF89818F3409F07DC03093FD
:1004D00081002093800010E033C06A817B818C8191
:1004E0009D810E942004A70196010E94D7042B0140
:1004F0003C01E12FF0E0EE0FFF1FEE58FF4FA08010
:10050000B180B50180E090E00E9420049B01AC0125
:10051000C301B2010E9478032B013C0120E030E0CE
:1005200040E857E40E94730388234CF420E030E055
:10053000A901C301B2010E94D20418163CF01F5F4A
:10054000153058F201E010E080E002C0850181E042
:100550008823E1F1C8010E9451016A817B818C816D
:100560009D810E942004A70196010E94D7042B01BF
:100570003C01B80180E090E00E9420044B015C0146
:100580009B01AC01C301B2010E9478030E94F103F8
:100590007BBD6A817B818C819D810E942004A701A3
:1005A00096010E94D704A50194010E9478030E943D
:1005B000F10321E0672B09F420E02ABD81E007C0A8
:1005C00080E005C080E003C080E001C080E02696A6
:1005D0000FB6F894DEBF0FBECDBFDF91CF911F9154
:1005E0000F91FF90EF90DF90CF90BF90AF909F90D2
:1005F0008F907F906F905F904F9008951F920F9211
:100600000FB60F9211242F933F934F935F936F93E5
:100610007F938F939F93AF93BF93EF93FF93E0915B
:100620007C00F0917D000995FF91EF91BF91AF9112
:100630009F918F917F916F915F914F913F912F91FA
:100640000F900FBE0F901F9018951F920F920FB62C
:100650000F9211242F933F934F935F936F937F9348
:100660008F939F93AF93BF93EF93FF93E0917E009F
:10067000F0917F000995FF91EF91BF91AF919F910C
:100680008F917F916F915F914F913F912F910F903B
:100690000FBE0F901F9018951F920F920FB60F92DA
:1006A00011242F933F934F935F936F937F938F9377
:1006B0009F93AF93BF93EF93FF93E0918000F091EE
:1006C00081000995FF91EF91BF91AF919F918F911B
:1006D0007F916F915F914F913F912F910F900FBE3E
:1006E0000F901F9018950E945D0408F481E0089512
:1006F0000E948C030C9498040E94910458F00E946C
:100700008A0440F029F45F3F29F00C9481045111D0
:100710000C94CC040C9487040E94A90468F39923D8
:10072000B1F3552391F3951B550BBB27AA276217ED
:100730007307840738F09F5F5F4F220F331F441FFA
:10074000AA1FA9F335D00E2E3AF0E0E832D091502E
:100750005040E695001CCAF72BD0FE2F29D0660F1B
:10076000771F881FBB1F261737074807AB07B0E85E
:1007700009F0BB0B802DBF01FF2793585F4F3AF064
:100780009E3F510578F00C9481040C94CC045F3F9B
:10079000E4F3983ED4F3869577956795B795F795EA
:1007A0009F5FC9F7880F911D9695879597F90895D2
:1007B000E1E0660F771F881FBB1F6217730784076E
:1007C000BA0720F0621B730B840BBA0BEE1F88F77D
:1007D000E09508950E94F1036894B1110C94CC0443
:1007E00008950E94B10488F09F5798F0B92F992777
:1007F000B751B0F0E1F0660F771F881F991F1AF00C
:10080000BA95C9F714C0B13091F00E94CB04B1E0A1
:1008100008950C94CB04672F782F8827B85F39F0A0
:10082000B93FCCF3869577956795B395D9F73EF4A4
:1008300090958095709561957F4F8F4F9F4F08954C
:10084000E89409C097FB3EF490958095709561956A
:100850007F4F8F4F9F4F9923A9F0F92F96E9BB2720
:100860009395F695879577956795B795F111F8CF9C
:10087000FAF4BB0F11F460FF1BC06F5F7F4F8F4F07
:100880009F4F16C0882311F096E911C0772321F0FD
:100890009EE8872F762F05C0662371F096E8862F95
:1008A00070E060E02AF09A95660F771F881FDAF7EC
:1008B000880F9695879597F90895990F0008550F19
:1008C000AA0BE0E8FEEF16161706E807F907C0F0D6
:1008D00012161306E407F50798F0621B730B840BDE
:1008E000950B39F40A2661F0232B242B252B21F4B8
:1008F00008950A2609F4A140A6958FEF811D811D58
:10090000089597F99F6780E870E060E008959FEF91
:1009100080EC089500240A94161617061806090696
:10092000089500240A941216130614060506089565
:10093000092E0394000C11F4882352F0BB0F40F4ED
:10094000BF2B11F460FF04C06F5F7F4F8F4F9F4F2D
:10095000089557FD9058440F551F59F05F3F71F0AF
:100960004795880F97FB991F61F09F3F79F0879516
:100970000895121613061406551FF2CF4695F1DF9F
:1009800008C0161617061806991FF1CF869571052F
:10099000610508940895E894BB2766277727CB0163
:1009A00097F908950E945D0408F48FEF08950E945E
:1009B000EA040C9498040E948A0438F00E9491047E
:1009C00020F0952311F00C9481040C9487041124D9
:1009D0000C94CC040E94A90470F3959FC1F3950F69
:1009E00050E0551F629FF001729FBB27F00DB11DB3
:1009F000639FAA27F00DB11DAA1F649F6627B00D43
:100A0000A11D661F829F2227B00DA11D621F739F2B
:100A1000B00DA11D621F839FA00D611D221F749F39
:100A20003327A00D611D231F849F600D211D822F80
:100A3000762F6A2F11249F5750409AF0F1F08823A7
:100A40004AF0EE0FFF1FBB1F661F771F881F9150D4
:100A50005040A9F79E3F510580F00C9481040C94FE
:100A6000CC045F3FE4F3983ED4F386957795679581
:100A7000B795F795E7959F5FC1F7FE2B880F911DFE
:0C0A80009695879597F90895F894FFCF9C
:100A8C005340420F00024F40420F00023B01013B1A
:0C0A9C00000101000800400000010004FF
:00000001FF
