:100000000C942A000C9434000C9434000C943400AA
:100010000C9434000C9434000C9434000C94340090
:100020000C9434000C9434000C9434000C94340080
:100030000C9434000C9434000C9434000C94340070
:100040000C9434000C9434000C9434000C94340060
:100050000C94340011241FBECFE5D8E0DEBFCDBF25
:100060000E9436000C9490000C9400008FEF81BB2E
:1000700080E20E9445000E9450008111FCCF0E9446
:100080006D008F3FE1F382BBFACF82B986B78460FF
:1000900086BF86B7806486BF86B7806886BF0895AE
:1000A00006B607FEFDCF81B1887F803661F08836C5
:1000B00061F0883A61F0803B61F0803761F0883709
:1000C00079F782E0089580E0089580E0089581E066
:1000D000089581E0089582E0089586B7846086BF20
:1000E00086B7806486BF86B7806886BF06B607FE7F
:1000F000FDCF81B1887F803811F0803911F483B150
:100100000895883811F0883911F483B10895803A40
:1001100029F486B7806886BF8FEF08958EEF089523
:04012000F894FFCF81
:00000001FF
