:100000000C942A000C9447000C9447000C94470071
:100010000C9447000C9447000C9447000C94470044
:100020000C9447000C9447000C9447000C94470034
:100030000C9447000C9485010C9447000C94AF017C
:100040000C9447000C9447000C9447000C94470014
:100050000C94470011241FBECFE5D8E0DEBFCDBF12
:1000600010E0A0E6B0E0EAEFF3E002C005900D92E8
:10007000AC36B107D9F720E0ACE6B0E001C01D9284
:10008000A037B207E1F70E9449000C94FB010C94E1
:100090000000CF93DF93CDB7DEB7CA50D1400FB683
:1000A000F894DEBF0FBECDBF8BE0E0E6F0E0DE01EE
:1000B000119601900D928A95E1F781E00E949D00D2
:1000C000E980FA800B811C812D813E814F8158850A
:1000D00069857A858B850E94DD00CE010C960E9491
:1000E000690160E0CE010C960E94C60060E08DE0E0
:1000F0000E94B500F2CF80FF05C09DB19DB1916017
:100100009DB904C09DB19DB19E7F9DB981FF05C081
:100110009DB19DB192609DB904C09DB19DB19D7F7F
:100120009DB982FF05C08EB18EB181608EB90895F0
:100130008EB18EB18E7F8EB9089597B3906297BBC2
:1001400097B3906897BB97B3906197BB97B39F7B2A
:1001500097BB98B3906198BB0E947B008DB180647F
:100160008DB98DB180618DB9089520E00CC098B330
:100170009F7E98BB8FB99EB1779BFDCF9FB198B3FF
:10018000906198BB2F5F621790F708950F931F93AC
:10019000CF93DF938C01D62FC0E004C06D2F0E9457
:1001A000B500CF5FF801EC0FF11D80818111F6CF12
:1001B000DF91CF911F910F910895EF92FF920F93CE
:1001C0001F93CF93DF93CDB7DEB72B970FB6F8947D
:1001D000DEBF0FBECDBFE982FA820B831C832D8365
:1001E0003E834F83588769877A878B8769817A81B5
:1001F0008B819C810D811E812F813885000F111FFD
:10020000221F331F000F111F221F331FA901980146
:10021000220F331F441F551F220F331F441F551F2A
:100220000E94D901215031098AB180618AB98AB10D
:1002300088608AB929B980B58F7780BD30BD80B517
:10024000806880BD80B58F7B80BD8985813039F421
:1002500080B5806280BD80B58F7E80BD11C0811168
:1002600007C080B5806280BD80B5806180BD08C058
:10027000823031F480B58F7D80BD80B58F7E80BDAA
:1002800080B5826080BD80B5846080BD8A85811123
:1002900006C08FB780688FBF8AB180688AB98B85A6
:1002A000811106C08FB780688FBF8AB180648AB918
:1002B0002B960FB6F894DEBF0FBECDBFDF91CF9166
:1002C0001F910F91FF90EF9008955F9BFECF8CB12F
:1002D0000895EF92FF920F931F93CF937C01C0E09C
:1002E0000CC087010C0F111D0E946501F80180836D
:1002F0008D3011F4108203C0CF5FCF3F91F7CF91C3
:100300001F910F91FF90EF9008951F920F920FB6DB
:100310000F9211242F933F934F935F936F937F938B
:100320008F939F93AF93BF93EF93FF93E0916C00F4
:10033000F0916D0009958BB180688BB9FF91EF91B9
:10034000BF91AF919F918F917F916F915F914F91ED
:100350003F912F910F900FBE0F901F9018951F92F5
:100360000F920FB60F9211242F933F934F935F93E9
:100370006F937F938F939F93AF93BF93EF93FF936D
:10038000E0916E00F0916F0009958BB180648BB99C
:10039000FF91EF91BF91AF919F918F917F916F915D
:1003A0005F914F913F912F910F900FBE0F901F9033
:1003B0001895A1E21A2EAA1BBB1BFD010DC0AA1F96
:1003C000BB1FEE1FFF1FA217B307E407F50720F0BE
:1003D000A21BB30BE40BF50B661F771F881F991F39
:1003E0001A9469F760957095809590959B01AC0182
:0A03F000BD01CF010895F894FFCF7E
:0C03FA0040420F00C01200000201010090
:00000001FF
