S01800004775657373696E6747616D6556322E302E7372656367
S11300000C942A000C9447000C9447000C9447006D
S11300100C94BA070C9447000C9447000C94930773
S11300200C9447000C9447000C946C070C94470004
S11300300C9447000C9447000C9447000C94470020
S11300400C9447000C9447000C9447000C94470010
S11300500C94470011241FBECFE5D8E0DEBFCDBF0E
S113006010E0A0E6B0E0E0E1F6E102C005900D92F8
S1130070AA3BB107D9F720E0AAEBB0E001C01D927A
S1130080AB3DB207E1F70E940A040C94060B0C94F2
S11300900000FC010FB6F8946091D7007091D8006D
S11300A08091D9009091DA000FBE309721F06083DF
S11300B07183828393830895FC019181911103C01C
S11300C0808180530895208130E020533109220F2C
S11300D0822F880F880F820F890F8053089590ED27
S11300E0980F81E09A3008F080E008959FEF980F10
S11300F081E09F3008F080E008950E94E20382E8E6
S113010090E00E94F70308950E94AB010E948D03C2
S113011080E090E00E944900CB010E94BA0A10924C
S1130120CD001092D0001092CF000E94B50A6EE06C
S113013070E00E941F0A8F5F8093CE000E947D00B2
S113014008950E94E20389E890E00E94F70360E0CA
S113015081E00E94CE0383E990E00E94F7030895B2
S1130160CF9380E00E94D401C82F8093CD008823D0
S113017009F454C00E946F008823E1F08091D000FC
S11301808230C0F490E0FC01E654FF4FC083FC01D0
S1130190E554FF4F10820E947D0060E081E00E94E0
S11301A0CE038AEB90E00E94F7038091D0008F5F2A
S11301B08093D0008091CD008D3381F58AEB90E05F
S11301C00E945C00C82F8093CF000E9476008111AA
S11301D007C00E94E20383EA90E00E94F70316C07E
S11301E08091CE00C8130CC00E94A1000E94B50AE1
S11301F06EE070E00E941F0A8F5F8093CE0006C0FD
S11302000E94E2038DEA90E00E94F7031092CF006F
S1130210EAEBF0E0108211821092D000CF910895A1
S1130220813029F138F0823009F43EC0833009F47A
S113023056C06FC064E08BE30E948604882309F4EF
S11302406AC065E08BE30E948604882309F465C0D4
S113025066E08BE30E948604882309F460C067E0AB
S11302608BE30E94860481115CC08FE2089564E0F0
S11302708BE30E948604882309F455C065E08BE370
S11302800E948604882309F450C066E08BE30E9430
S11302908604882309F44BC067E08BE30E9486043C
S11302A0811147C08AE2089564E08BE30E948604CA
S11302B0882309F440C065E08BE30E948604882308
S11302C0E1F166E08BE30E9486048823C1F167E0D4
S11302D08BE30E948604811134C08DE2089564E0AA
S11302E08BE30E948604882371F165E08BE30E940E
S11302F08604882351F166E08BE30E9486048823F8
S113030031F167E08BE30E948604811122C08BE205
S1130310089580E0089587E3089588E3089589E3C4
S1130320089580E0089584E3089585E3089586E3BD
S1130330089580E0089581E3089582E3089583E3B6
S1130340089580E008958FE6089580E308958DE38D
S1130350089580E0089541E060E08BE30E940F047B
S113036041E061E08BE30E940F0441E062E08BE333
S11303700E940F0441E063E08BE30E940F0442E01B
S113038064E08BE30E940F0442E065E08BE30E948B
S11303900F0442E066E08BE30E940F0442E067E052
S11303A08BE30E940F0408950F931F93CF93DF9361
S11303B0811103C000E612E002C000E111E0C0E0D8
S11303C0D0E064C02097B9F460E08BE30E94780425
S11303D061E08BE30E946B0462E08BE30E946B0498
S11303E063E08BE30E946B048C2FF801099588234A
S11303F009F44BC050C0C130D105B1F460E08BE3C7
S11304000E946B0461E08BE30E94780462E08BE35A
S11304100E946B0463E08BE30E946B048C2FF80151
S11304200995882391F137C0C230D105B1F460E059
S11304308BE30E946B0461E08BE30E946B0462E037
S11304408BE30E94780463E08BE30E946B048C2F9F
S1130450F80109958823C9F01EC0C330D105A9F459
S113046060E08BE30E946B0461E08BE30E946B0409
S113047062E08BE30E946B0463E08BE30E947804E8
S11304808C2FF8010995811106C02196C430D1053D
S11304900CF498CF80E0DF91CF911F910F910895D4
S11304A0CF93DF93EA010E9486049881891302C0E6
S11304B092E001C0982F8883892FDF91CF9108950E
S11304C0813069F138F0823009F44EC0833009F488
S11304D070C091C04DEB50E064E08BE30E94500289
S11304E0882309F48AC04EEB50E065E08BE30E9458
S11304F05002882309F483C04FEB50E066E08BE39D
S11305000E945002882309F47CC040EC50E067E06C
S11305108BE30E945002811176C08FE2089541EC72
S113052050E064E08BE30E945002882309F46DC01C
S113053042EC50E065E08BE30E945002882309F40A
S113054066C043EC50E066E08BE30E9450028823CF
S113055009F45FC044EC50E067E08BE30E94500272
S1130560811159C08AE2089545EC50E064E08BE3C0
S11305700E945002882309F450C046EC50E065E024
S11305808BE30E945002882309F449C047EC50E0F1
S113059066E08BE30E945002882309F442C048ECD1
S11305A050E067E08BE30E94500281113CC08DE271
S11305B0089549EC50E064E08BE30E9450028823E4
S11305C0A1F14AEC50E065E08BE30E9450028823DD
S11305D071F14BEC50E066E08BE30E9450028823FB
S11305E041F14CEC50E067E08BE30E945002811132
S11305F022C08BE2089580E0089587E3089588E39C
S1130600089589E3089580E0089584E3089585E3D7
S1130610089586E3089580E0089581E3089582E3D0
S1130620089583E3089580E008958FE6089580E3B4
S113063008958DE3089580E00895CF93C82F482F3F
S1130640417063E085E30E944E04C1FB442740F9F6
S113065064E085E30E944E04C2FB442740F965E050
S113066085E30E944E04C3FB442740F966E085E31A
S11306700E944E04CF910895CF93C82F84FB442742
S113068040F963E085E30E944E04C5FB442740F92A
S113069064E085E30E944E04C6FB442740F965E00C
S11306A085E30E944E044C2F441F4427441F66E0F8
S11306B085E30E944E04CF9108950F931F9362E047
S11306C085E30E946B040091640010916500209101
S11306D066003091670040916800509169006DEBAD
S11306E077E386E895E30E94B10562E085E30E9422
S11306F078041F910F910895CF93C82F0E943C0353
S113070060E085E30E9478040E945D038C2F0E94C0
S11307101D030E945D03CF910895409164005091A0
S11307206500609166007091670080916800909107
S113073069000E94720541E063E085E30E940F04B2
S113074041E064E085E30E940F0441E065E085E355
S11307500E940F0441E066E085E30E940F0441E03B
S113076060E085E30E940F0441E062E085E30E94BB
S11307700F0441E061E085E30E940F0482E00E94DF
S11307807C0388E20E947C038CE00E947C0386E068
S11307900E947C0381E00E947C030895603188F408
S11307A0823078F4811106C0862F8F7080680E9491
S11307B07C030895813029F4862F8F70806C0E9409
S11307C07C03089581E00E947C030895CF93C82F91
S11307D00E943C0360E085E30E946B040E945D0379
S11307E08C2F0E941D030E945D03CF9108950F93E7
S11307F01F93CF938C01C0E003C00E94E603CF5F38
S1130800F801EC0FF11D80818111F7CFCF911F9179
S11308100F9108950E9484000E94B000FDCF4130E2
S113082069F4E82FF0E0229181E090E002C0880FA3
S1130830991F6A95E2F7822B80830895411116C0AF
S1130840E82FF0E0DF012E9181E090E002C0880FF4
S1130850991F6A95E2F7982F909592239C9390B7ED
S1130860946090BF9081892B808308954230A9F4CD
S1130870E82FF0E0DF012E9181E090E002C0880FC4
S1130880991F6A95E2F7982F909592239C9390B7BD
S11308909B7F90BF9081892B80830895413069F4B8
S11308A0E82FF0E0208181E090E002C0880F991FDA
S11308B06A95E2F7822B80830895E82FF0E0208187
S11308C081E090E002C0880F991F6A95E2F7809555
S11308D0822380830895E82FF0E0808121E030E0D6
S11308E002C0220F331F6A95E2F7282B2083089554
S11308F0E82FF0E0808121E030E002C0220F331FB6
S11309006A95E2F72095282320830895E82FF0E0E4
S11309103297808190E002C0959587956A95E2F7B9
S1130920817008958130910551F483B7816083BF4C
S113093083B78D7F83BF83B78B7F83BF0895883050
S1130940910551F483B78E7F83BF83B7826083BFE1
S113095083B78B7F83BF08958034910551F483B7A7
S1130960816083BF83B7826083BF83B78B7F83BF7C
S11309700895811521E0920751F483B78E7F83BFD8
S113098083B78D7F83BF83B7846083BF0895811548
S1130990944049F483B7816083BF83B78D7F83BF5D
S11309A083B7846083BF08958130910551F48EB577
S11309B081608EBD8EB58D7F8EBD8EB58B7F8EBDD5
S11309C008958830910551F48EB58E7F8EBD8EB515
S11309D082608EBD8EB58B7F8EBD08958034910567
S11309E051F48EB581608EBD8EB582608EBD8EB59C
S11309F08B7F8EBD0895811521E0920751F48EB549
S1130A008E7F8EBD8EB58D7F8EBD8EB584608EBD7E
S1130A1008958115944049F48EB581608EBD8EB5DC
S1130A208D7F8EBD8EB584608EBD08958130910515
S1130A3051F485B5816085BD85B58D7F85BD85B54E
S1130A408B7F85BD08958830910551F485B58E7FDF
S1130A5085BD85B5826085BD85B58B7F85BD0895CF
S1130A608032910551F485B5816085BD85B582607C
S1130A7085BD85B58B7F85BD08958034910551F47E
S1130A8085B58E7F85BD85B58D7F85BD85B5846033
S1130A9085BD08958038910551F485B5816085BD83
S1130AA085B58D7F85BD85B5846085BD0895811527
S1130AB021E0920751F485B58E7F85BD85B58260AE
S1130AC085BD85B5846085BD08958115944049F43C
S1130AD085B5816085BD85B5826085BD85B5846039
S1130AE085BD0895CF93DF9300D000D000D0CDB75B
S1130AF0DEB749835A836B837C838D839E839111F4
S1130B0004C0E42FF0E0108223C0913089F489817D
S1130B10833519F487B3886087BB8981853419F4D8
S1130B2081B3806881BBE981F0E089E6808310C0ED
S1130B30923071F4E981EF3441F41FBC8EB58860C2
S1130B408EBD8EB58F7E8EBD03C0F0E088E08083BD
S1130B5026960FB6F894DEBF0FBECDBFDF91CF91BE
S1130B6008954F925F926F927F928F929F92AF926D
S1130B70BF92CF92DF92EF92FF920F931F93CF9386
S1130B80DF93CDB7DEB72A970FB6F894DEBF0FBE5A
S1130B90CDBF6B017C0109831A832B833C834D8376
S1130BA05E83033509F071C037C06A817B818C8113
S1130BB09D81E12FF0E0EE0FFF1FE858FF4FA0806A
S1130BC0B180950140E050E00E94330A842F952FB4
S1130BD0422E532E642E752E622F732F0E94FB0813
S1130BE06F83788789879A87A701960160E070E010
S1130BF08FE793E40E9453089B01AC016F817885D1
S1130C0089859A850E944E08882324F4452846281D
S1130C10472849F41F5F01C010E0153030F201E0AD
S1130C2010E080E002C0850181E0882309F438C126
S1130C30C8010E9492046A817B818C819D810E94FB
S1130C40FB08A70196010E94B2096B017C01B8015F
S1130C5080E090E00E94FB089B01AC01C701B60153
S1130C600E9453089B01AC0160E070E08FE793E4BD
S1130C700E94E1070E94C50862BF08B600FEFDCFCE
S1130C8088B7816088BF81E010C1053409F071C064
S1130C9037C06A817B818C819D81E12FF0E0EE0F6A
S1130CA0FF1FE659FF4FA080B180950140E050E05E
S1130CB00E94330A842F952F422E532E642E752EB4
S1130CC0622F732F0E94FB086F83788789879A8726
S1130CD0A701960160E070E08FE793E40E94530857
S1130CE09B01AC016F81788589859A850E944E08A5
S1130CF0882324F445284628472849F41F5F01C067
S1130D0010E0173030F201E010E080E002C085010D
S1130D1081E0882309F4C6C0C8010E9416056A81CF
S1130D207B818C819D810E94FB08A70196010E9412
S1130D30B2096B017C01B80180E090E00E94FB08DD
S1130D409B01AC01C701B6010E9453089B01AC0191
S1130D5060E070E08FE793E40E94E1070E94C50819
S1130D6064BD08B606FEFDCF88B7806488BF81E005
S1130D709CC00F34E9F180E098C06A817B818C814A
S1130D809D81E12FF0E0EE0FFF1FE858FF4FA08098
S1130D90B180950140E050E00E94330A29013A01F4
S1130DA0B90180E090E00E94FB086F83788789870F
S1130DB09A87A701960160E070E080E897E40E94BA
S1130DC053089B01AC016F81788589859A850E94BF
S1130DD04E0888235CF4C301B2010E94FB0820E0A2
S1130DE030E0A9010E94AD0918164CF01F5F01C044
S1130DF010E0153010F201E010E080E002C085013F
S1130E0081E0882309F450C0C8010E94D4046A8197
S1130E107B818C819D810E94FB08A70196010E9421
S1130E20B2092B013C01B80180E090E00E94FB086C
S1130E304B015C019B01AC01C301B2010E94530848
S1130E409B01AC0160E070E080E897E40E94E10758
S1130E500E94CC087DBD6A817B818C819D810E942A
S1130E60FB08A70196010E94B209A50194010E9402
S1130E7053089B01AC0160E070E080E897E40E94B5
S1130E80E1070E94CC0821E0672B09F420E02CBD87
S1130E9008B602FEFDCF88B7846088BF81E005C034
S1130EA080E003C080E001C080E02A960FB6F89489
S1130EB0DEBF0FBECDBFDF91CF911F910F91FF9089
S1130EC0EF90DF90CF90BF90AF909F908F907F90E6
S1130ED06F905F904F9008951F920F920FB60F92EC
S1130EE011242F933F934F935F936F937F938F932B
S1130EF09F93AF93BF93EF93FF93E091D100F09151
S1130F00D2000995FF91EF91BF91AF919F918F917D
S1130F107F916F915F914F913F912F910F900FBEF1
S1130F200F901F9018951F920F920FB60F921124D5
S1130F302F933F934F935F936F937F938F939F93DD
S1130F40AF93BF93EF93FF93E091D500F091D60058
S1130F500995FF91EF91BF91AF919F918F917F91EF
S1130F606F915F914F913F912F910F900FBE0F9012
S1130F701F9018951F920F920FB60F9211242F9362
S1130F803F934F935F936F937F938F939F93AF930D
S1130F90BF93EF93FF93E091D300F091D4000995B0
S1130FA0FF91EF91BF91AF919F918F917F916F913D
S1130FB05F914F913F912F910F900FBE0F901F9013
S1130FC018955058BB27AA270E94F9070C94730957
S1130FD00E94650938F00E946C0920F039F49F3FA3
S1130FE019F426F40C9462090EF4E095E7FB0C94D2
S1130FF05C09E92F0E94840958F3BA176207730742
S11310008407950720F079F4A6F50C94A6090EF44C
S1131010E0950B2EBA2FA02D0B01B90190010C0104
S1131020CA01A0011124FF27591B99F0593F50F41C
S1131030503E68F11A16F040A22F232F342F442774
S1131040585FF3CF469537952795A795F04053956C
S1131050C9F77EF41F16BA0B620B730B840BBAF03C
S11310609150A1F0FF0FBB1F661F771F881FC2F7A7
S11310700EC0BA0F621F731F841F48F487957795BB
S11310806795B795F7959E3F08F0B0CF9395880F75
S113109008F09927EE0F9795879508950E943809CF
S11310A008F481E008950E9467080C9473090E9473
S11310B06C0958F00E94650940F029F45F3F29F05B
S11310C00C945C0951110C94A7090C9462090E94B8
S11310D0840968F39923B1F3552391F3951B550BB8
S11310E0BB27AA2762177307840738F09F5F5F4FF7
S11310F0220F331F441FAA1FA9F335D00E2E3AF036
S1131100E0E832D091505040E695001CCAF72BD04D
S1131110FE2F29D0660F771F881FBB1F261737079E
S11311204807AB07B0E809F0BB0B802DBF01FF27D0
S113113093585F4F3AF09E3F510578F00C945C0948
S11311400C94A7095F3FE4F3983ED4F38695779512
S11311506795B795F7959F5FC9F7880F911D969589
S1131160879597F90895E1E0660F771F881FBB1FE5
S1131170621773078407BA0720F0621B730B840B92
S1131180BA0BEE1F88F7E09508950E94CC08689486
S1131190B1110C94A70908950E948C0988F09F57F7
S11311A098F0B92F9927B751B0F0E1F0660F771F87
S11311B0881F991F1AF0BA95C9F714C0B13091F07D
S11311C00E94A609B1E008950C94A609672F782F10
S11311D08827B85F39F0B93FCCF386957795679542
S11311E0B395D9F73EF490958095709561957F4FAE
S11311F08F4F9F4F0895E89409C097FB3EF4909554
S11312008095709561957F4F8F4F9F4F9923A9F0DB
S1131210F92F96E9BB279395F6958795779567956A
S1131220B795F111F8CFFAF4BB0F11F460FF1BC0AE
S11312306F5F7F4F8F4F9F4F16C0882311F096E941
S113124011C0772321F09EE8872F762F05C06623EF
S113125071F096E8862F70E060E02AF09A95660FA8
S1131260771F881FDAF7880F9695879597F9089561
S1131270990F0008550FAA0BE0E8FEEF16161706A3
S1131280E807F907C0F012161306E407F50798F00B
S1131290621B730B840B950B39F40A2661F0232B24
S11312A0242B252B21F408950A2609F4A140A695A0
S11312B08FEF811D811D089597F99F6780E870E085
S11312C060E008959FEF80EC089500240A941616B8
S11312D0170618060906089500240A941216130620
S11312E0140605060895092E0394000C11F48823AE
S11312F052F0BB0F40F4BF2B11F460FF04C06F5FCA
S11313007F4F8F4F9F4F089557FD9058440F551F9F
S113131059F05F3F71F04795880F97FB991F61F073
S11313209F3F79F087950895121613061406551FEA
S1131330F2CF4695F1DF08C0161617061806991F56
S1131340F1CF86957105610508940895E894BB274B
S113135066277727CB0197F908950E94380908F486
S11313608FEF08950E94C5090C9473090E946509C2
S113137038F00E946C0920F0952311F00C945C095C
S11313800C94620911240C94A7090E94840970F337
S1131390959FC1F3950F50E0551F629FF001729F16
S11313A0BB27F00DB11D639FAA27F00DB11DAA1F25
S11313B0649F6627B00DA11D661F829F2227B00D72
S11313C0A11D621F739FB00DA11D621F839FA00DFD
S11313D0611D221F749F3327A00D611D231F849F4D
S11313E0600D211D822F762F6A2F11249F575040A4
S11313F09AF0F1F088234AF0EE0FFF1FBB1F661F1F
S1131400771F881F91505040A9F79E3F510580F0E7
S11314100C945C090C94A7095F3FE4F3983ED4F361
S1131420869577956795B795F795E7959F5FC1F78B
S1131430FE2B880F911D9695879597F9089597FB34
S1131440072E16F4009407D077FD09D00E94550AA0
S113145007FC05D03EF4909581959F4F08957095B3
S113146061957F4F0895A1E21A2EAA1BBB1BFD01B3
S11314700DC0AA1FBB1FEE1FFF1FA217B307E4076F
S1131480F50720F0A21BB30BE40BF50B661F771FC7
S1131490881F991F1A9469F76095709580959095A7
S11314A09B01AC01BD01CF010895AA1BBB1B51E1F7
S11314B007C0AA1FBB1FA617B70710F0A61BB70BC0
S11314C0881F991F5A95A9F780959095BC01CD0165
S11314D008958F929F92AF92BF92CF92DF92EF9234
S11314E0FF92CF93DF93EC01688179818A819B819C
S11314F0611571058105910521F464E279ED8BE5AF
S113150097E02DE133EF41E050E00E94C50A490124
S11315105A019B01AC01A7EAB1E40E94E40A6B0101
S11315207C01ACEEB4EFA50194010E94F20ADC0147
S1131530CB018C0D9D1DAE1DBF1DB7FF03C00197D0
S1131540A109B04888839983AA83BB839F77DF91DD
S1131550CF91FF90EF90DF90CF90BF90AF909F908E
S11315608F9008950E94690A089580E690E00E9491
S1131570690A0895A0E0B0E0809360009093610050
S1131580A0936200B09363000895052E97FB1EF4A8
S113159000940E94DC0A57FD07D00E94330A07FC1E
S11315A003D04EF40C94DC0A509540953095219567
S11315B03F4F4F4F5F4F089590958095709561957B
S11315C07F4F8F4F9F4F08950E94F70AA59F900D5C
S11315D0B49F900DA49F800D911D11240895B7FF11
S11315E00C94E40A0E94E40A821B930B0895A29FC0
S11315F0B001B39FC001A39F700D811D1124911DE3
S1131600B29F700D811D1124911D0895F894FFCF90
S1131610010000005340420F0000010008002000B8
S113162040008000000100040100080040000001A7
S1131630000447756573732100596F752057696EEF
S1131640212100507265737320746F20706C61796E
S11316502121004E6F742056616C696400547279C4
S10D166020416761696E212100003A
S9030000FC
