S010000052656369657665722E73726563DF
S11300000C942A000C9447000C9447000C9447006D
S11300100C9447000C9447000C9447000C94470040
S11300200C9447000C9447000C9447000C94470030
S11300300C9447000C94C5020C9447000C94EF02F6
S11300400C9447000C9447000C9447000C94470010
S11300500C94470011241FBECFE5D8E0DEBFCDBF0E
S113006010E0A0E6B0E0ECE8F6E002C005900D92E6
S1130070A23DB107D9F720E0A2EDB0E001C01D9286
S1130080A73DB207E1F70E94A4010C9444030C9429
S11300900000EF92FF920F931F93CF93DF93CDB79E
S11300A0DEB72B970FB6F894DEBF0FBECDBF8BE043
S11300B0E9E6F0E0DE01119601900D928A95E1F7F0
S11300C0E980FA800B811C812D813E814F81588506
S11300D069857A858B850E94030260916600709120
S11300E06700809168000E948001609163007091B4
S11300F06400809165000E948001609160007091AD
S11301006100809162000E94800182E08093D200AD
S11301102B960FB6F894DEBF0FBECDBFDF91CF9103
S11301201F910F91FF90EF9008958091D20082303B
S113013009F455C028F4882351F0813061F1089501
S1130140833009F470C0843009F479C00895609153
S1130150660070916700809168000E94860160913A
S1130160600070916100809162000E94950160912D
S1130170630070916400809165000E94950184E79A
S113018090E00E9496028DE00E948B0281E890E04C
S11301900E949602089560916600709167008091B4
S11301A068000E94950160916000709161008091E7
S11301B062000E94950160916300709164008091D7
S11301C065000E94860185E890E00E9496028DE019
S11301D00E948B0281E890E00E949602089560914B
S11301E0660070916700809168000E94950160919B
S11301F0600070916100809162000E9486016091AC
S1130200630070916400809165000E94950185E906
S113021090E00E9496028DE00E948B0281E890E0BB
S11302200E949602089584EA90E00E9496028DE06E
S11302300E948B0281E890E00E949602089589EA68
S113024090E00E9496028DE00E948B0281E890E08B
S11302500E94960208950F931F93CF93DF93CDB717
S1130260DEB72F970FB6F894DEBF0FBECDBF8E0159
S11302700F5F1F4F8FE0F80111928A95E9F70E94F2
S11302809500C8010E94A9026FEB70E0C8010E94AA
S11302903B03892B21F481E08093D20026C064ECD7
S11302A070E0CE0101960E943B03892B21F482E089
S11302B08093D2001AC06AEC70E0CE0101960E94CD
S11302C03B03892B19F41092D2000FC06FEC70E03D
S11302D0CE0101960E943B03892B21F483E0809395
S11302E0D20003C084E08093D2002F960FB6F89416
S11302F0DEBF0FBECDBFDF91CF911F910F91089547
S1130300862F672F41E00E94A9010895962F81301E
S113031029F4672F892F0E94E8010895811104C0F0
S1130320672F892F0E94F5010895962F813029F4B3
S1130330672F892F0E94F5010895811104C0672F4A
S1130340892F0E94E80108950E9449000E942B0110
S1130350FDCF413069F4E82FF0E0229181E090E094
S113036002C0880F991F6A95E2F7822B8083089553
S1130370411116C0E82FF0E0DF012E9181E090E0FA
S113038002C0880F991F6A95E2F7982F90959223DF
S11303909C9390B7946090BF9081892B808308953B
S11303A04230A9F4E82FF0E0DF012E9181E090E0E3
S11303B002C0880F991F6A95E2F7982F90959223AF
S11303C09C9390B79B7F90BF9081892B80830895E5
S11303D0E82FF0E0808121E030E002C0220F331FDB
S11303E06A95E2F7282B20830895E82FF0E08081B6
S11303F021E030E002C0220F331F6A95E2F7209516
S1130400282320830895EF92FF920F931F93CF9395
S1130410DF93CDB7DEB72B970FB6F894DEBF0FBED0
S1130420CDBFE982FA820B831C832D833E834F83E5
S1130430588769877A878B8769817A818B819C81C8
S11304400D811E812F813885000F111F221F331F3C
S1130450000F111F221F331FA9019801220F331F00
S1130460441F551F220F331F441F551F0E94190399
S1130470215031098AB180618AB98AB188608AB908
S113048029B980B58F7780BD30BD80B5806880BDC7
S113049080B58F7B80BD8985813039F480B58062D9
S11304A080BD80B58F7E80BD11C0811107C080B52D
S11304B0806280BD80B5806180BD08C0823031F427
S11304C080B58F7D80BD80B58F7E80BD80B5826014
S11304D080BD80B5846080BD8A85811106C08FB7D8
S11304E080688FBF8AB180688AB98B85811106C004
S11304F08FB780688FBF8AB180648AB92B960FB694
S1130500F894DEBF0FBECDBFDF91CF911F910F9145
S1130510FF90EF9008955D9BFECF8CB98BB1806402
S11305208BB908955F9BFECF8CB108950F931F93F1
S1130530CF938C01C0E003C00E948B02CF5FF8010F
S1130540EC0FF11D80818111F7CFCF911F910F9195
S11305500895EF92FF920F931F93CF937C01C0E015
S11305600CC087010C0F111D0E949202F8018083B8
S11305708D3011F4108203C0CF5FCF3090F3CF9150
S11305801F910F91FF90EF9008951F920F920FB655
S11305900F9211242F933F934F935F936F937F9305
S11305A08F939F93AF93BF93EF93FF93E091D30007
S11305B0F091D40009958BB180688BB9FF91EF91CC
S11305C0BF91AF919F918F917F916F915F914F9167
S11305D03F912F910F900FBE0F901F9018951F926F
S11305E00F920FB60F9211242F933F934F935F9363
S11305F06F937F938F939F93AF93BF93EF93FF93E7
S1130600E091D500F091D60009958BB180648BB947
S1130610FF91EF91BF91AF919F918F917F916F91D6
S11306205F914F913F912F910F900FBE0F901F90AC
S11306301895A1E21A2EAA1BBB1BFD010DC0AA1F0F
S1130640BB1FEE1FFF1FA217B307E407F50720F037
S1130650A21BB30BE40BF50B661F771F881F991FB2
S11306601A9469F760957095809590959B01AC01FB
S1130670BD01CF010895FB01DC018D91019080192A
S10F06800110D9F3990B0895F894FFCFF2
S113068C3B02013B01013B000100127A0080250072
S113069C0002010120524544204C4544204F4E2079
S11306AC002D3E20002059454C4C4F57204C4544BE
S11306BC204F4E200020475245454E204C454420A7
S11306CC4F4E2000204F4B2000204E4F54204445C9
S11306DC46494E454420434F4D4D414E442000570E
S11306EC4149540053544152540053544F50004107
S10506FC5400A4
S9030000FC
