:100000000C942A000C9447000C9447000C94470071
:100010000C94E7030C9447000C9447000C94C00325
:100020000C9447000C9447000C9499030C944700DF
:100030000C9447000C9447000C9447000C94470024
:100040000C9447000C9447000C9447000C94470014
:100050000C94470011241FBECFE5D8E0DEBFCDBF12
:1000600010E0A0E6B0E0E6EDFCE002C005900D92E5
:10007000A037B107D9F720E0A0E7B0E001C01D929A
:10008000A637B207E1F70E941F010C9469060C9491
:100090000000CF93C82F482F417063E085E30E9492
:1000A0009301C1FB442740F964E085E30E9493017A
:1000B000C2FB442740F965E085E30E949301C3FB3E
:1000C000442740F966E085E30E949301CF910895AB
:1000D000CF93C82F84FB442740F963E085E30E9457
:1000E0009301C5FB442740F964E085E30E94930136
:1000F000C6FB442740F965E085E30E9493014C2F3D
:10010000441F4427441F66E085E30E949301CF917A
:1001100008950F931F9362E085E30E94B001009160
:100120006000109161002091620030916300409165
:100130006400509165006DEB77E386E895E30E94DB
:10014000AA0262E085E30E94BD011F910F9108950C
:10015000CF93C82F0E94680060E085E30E94BD0134
:100160000E9489008C2F0E9449000E948900CF9133
:10017000089540916000509161006091620070911B
:10018000630080916400909165000E94670241E0E5
:1001900063E085E30E94320141E064E085E30E9470
:1001A000320141E065E085E30E94320141E066E012
:1001B00085E30E94320141E060E085E30E94320164
:1001C00041E062E085E30E94320141E061E085E3C5
:1001D0000E94320182E00E94A80088E20E94A800EA
:1001E0008CE00E94A80086E00E94A80081E00E94A6
:1001F000A8000895603188F4823078F4811106C037
:10020000862F8F7080680E94A8000895813029F49D
:10021000862F8F70806C0E94A8000895CF93C82FFE
:100220000E94680060E085E30E94B0010E9489009E
:100230008C2F0E9449000E948900CF9108950E944E
:10024000CB010E94B90061E085E30E9471010E9428
:10025000DE01C82F60E080E00E94FA008C2F0E942F
:100260000E01F5CF413069F4E82FF0E0229181E0F2
:1002700090E002C0880F991F6A95E2F7822B808375
:100280000895411116C0E82FF0E0DF012E9181E0C2
:1002900090E002C0880F991F6A95E2F7982F909519
:1002A00092239C9390B7946090BF9081892B808318
:1002B00008954230A9F4E82FF0E0DF012E9181E0AB
:1002C00090E002C0880F991F6A95E2F7982F9095E9
:1002D00092239C9390B79B7F90BF9081892B8083C2
:1002E0000895613031F4E82FF0E031978FEF80838B
:1002F000089561110BC0E82FF0E0DF0111971C9207
:1003000080B7846080BF8FEF80830895623051F49E
:10031000E82FF0E0DF0111971C9280B78B7F80BF40
:100320008FEF80830895413069F4E82FF0E0208159
:1003300081E090E002C0880F991F6A95E2F7822B56
:1003400080830895E82FF0E0208181E090E002C0F2
:10035000880F991F6A95E2F780958223808308951C
:10036000E82FF0E0808121E030E002C0220F331F4F
:100370006A95E2F7282B20830895E82FF0E080812A
:1003800021E030E002C0220F331F6A95E2F720958A
:1003900028232083089587B38F7D87BB87B38F770A
:1003A00087BB87B38F7E87BB87B3806487BB8DB1E4
:1003B00080648DB98DB18F7E8DB908958EB1779B94
:1003C000FDCF8FB108958130910551F483B78160DD
:1003D00083BF83B78D7F83BF83B78B7F83BF089530
:1003E0008830910551F483B78E7F83BF83B78260D5
:1003F00083BF83B78B7F83BF08958034910551F409
:1004000083B7816083BF83B7826083BF83B78B7FED
:1004100083BF0895811521E0920751F483B78E7F41
:1004200083BF83B78D7F83BF83B7846083BF089505
:100430008115944049F483B7816083BF83B78D7F72
:1004400083BF83B7846083BF08958130910551F4E1
:100450008EB581608EBD8EB58D7F8EBD8EB58B7F46
:100460008EBD08958830910551F48EB58E7F8EBD76
:100470008EB582608EBD8EB58B7F8EBD0895803423
:10048000910551F48EB581608EBD8EB582608EBDB2
:100490008EB58B7F8EBD0895811521E0920751F4B2
:1004A0008EB58E7F8EBD8EB58D7F8EBD8EB58460F0
:1004B0008EBD08958115944049F48EB581608EBD3E
:1004C0008EB58D7F8EBD8EB584608EBD0895CF9321
:1004D000DF9300D000D000D0CDB7DEB749835A8378
:1004E0006B837C838D839E83911104C0E42FF0E0A5
:1004F000108223C0913089F48981833519F487B340
:10050000886087BB8981853419F481B3806881BB99
:10051000E981F0E089E6808310C0923071F4E981CE
:10052000EF3441F41FBC8EB588608EBD8EB58F7ED2
:100530008EBD03C0F0E088E0808380E490E00E94FC
:10054000250226960FB6F894DEBF0FBECDBFDF9111
:10055000CF9108954F925F926F927F928F929F9268
:10056000AF92BF92EF92FF920F931F93CF93DF93BF
:10057000CDB7DEB72A970FB6F894DEBF0FBECDBF5A
:100580004B015C0109831A832B833C834D835E837B
:10059000033509F071C037C06A817B818C819D81F0
:1005A000E12FF0E0EE0FFF1FEA59FF4FE080F180EE
:1005B000970140E050E00E944706842F952F422E7D
:1005C000532E642E752E622F732F0E9428056F8381
:1005D000788789879A87A501940160E070E08FE7AA
:1005E00093E40E9480049B01AC016F81788589852A
:1005F0009A850E947B04882324F4452846284728AE
:1006000049F41F5F01C010E0153030F201E010E046
:1006100080E002C0870181E0882309F472C0C8012C
:100620000E94E3016A817B818C819D810E94280563
:10063000A50194010E94DA054B015C01B80180E03C
:1006400090E00E9428059B01AC01C501B4010E9405
:1006500080049B01AC0160E070E08FE793E40E94AE
:100660000E040E94F20462BF08B600FEFDCF88B7F8
:10067000816088BF81E048C00F3409F044C06A81BE
:100680007B818C819D810E942805A50194010E9497
:10069000DA0520E030E040E85CE30E94DA059B01E7
:1006A000AC0160E070E080E897E40E940E040E94D4
:1006B000F9047DBD6A817B818C819D810E94280522
:1006C000A50194010E94DA0520E030E040E85CE3F7
:1006D0000E94DA059B01AC0160E070E080E897E4DD
:1006E0000E940E040E94F90421E0672B09F420E027
:1006F0002CBD08B602FEFDCF88B7846088BF81E0BC
:1007000003C080E001C080E02A960FB6F894DEBFF7
:100710000FBECDBFDF91CF911F910F91FF90EF9052
:10072000BF90AF909F908F907F906F905F904F9011
:1007300008951F920F920FB60F9211242F933F939B
:100740004F935F936F937F938F939F93AF93BF93D9
:10075000EF93FF93E0917000F09171000995FF9184
:10076000EF91BF91AF919F918F917F916F915F9129
:100770004F913F912F910F900FBE0F901F901895A2
:100780001F920F920FB60F9211242F933F934F9306
:100790005F936F937F938F939F93AF93BF93EF93E9
:1007A000FF93E0917400F09175000995FF91EF912E
:1007B000BF91AF919F918F917F916F915F914F9179
:1007C0003F912F910F900FBE0F901F9018951F9281
:1007D0000F920FB60F9211242F933F934F935F9375
:1007E0006F937F938F939F93AF93BF93EF93FF93F9
:1007F000E0917200F09173000995FF91EF91BF9124
:10080000AF919F918F917F916F915F914F913F91A8
:100810002F910F900FBE0F901F9018955058BB2727
:10082000AA270E9426040C94A0050E94920538F085
:100830000E94990520F039F49F3F19F426F40C9496
:100840008F050EF4E095E7FB0C948905E92F0E94D3
:10085000B10558F3BA17620773078407950720F0AC
:1008600079F4A6F50C94D3050EF4E0950B2EBA2F6F
:10087000A02D0B01B90190010C01CA01A0011124A6
:10088000FF27591B99F0593F50F4503E68F11A1652
:10089000F040A22F232F342F4427585FF3CF4695E3
:1008A00037952795A795F0405395C9F77EF41F1605
:1008B000BA0B620B730B840BBAF09150A1F0FF0FCF
:1008C000BB1F661F771F881FC2F70EC0BA0F621FBB
:1008D000731F841F48F4879577956795B795F795AB
:1008E0009E3F08F0B0CF9395880F08F09927EE0F40
:1008F0009795879508950E94650508F481E008950D
:100900000E9494040C94A0050E94990558F00E943E
:10091000920540F029F45F3F29F00C9489055111AC
:100920000C94D4050C948F050E94B10568F39923AB
:10093000B1F3552391F3951B550BBB27AA276217DB
:100940007307840738F09F5F5F4F220F331F441FE8
:10095000AA1FA9F335D00E2E3AF0E0E832D091501C
:100960005040E695001CCAF72BD0FE2F29D0660F09
:10097000771F881FBB1F261737074807AB07B0E84C
:1009800009F0BB0B802DBF01FF2793585F4F3AF052
:100990009E3F510578F00C9489050C94D4055F3F77
:1009A000E4F3983ED4F3869577956795B795F795D8
:1009B0009F5FC9F7880F911D9695879597F90895C0
:1009C000E1E0660F771F881FBB1F6217730784075C
:1009D000BA0720F0621B730B840BBA0BEE1F88F76B
:1009E000E09508950E94F9046894B1110C94D4051F
:1009F00008950E94B90588F09F5798F0B92F99275C
:100A0000B751B0F0E1F0660F771F881F991F1AF0F9
:100A1000BA95C9F714C0B13091F00E94D305B1E086
:100A200008950C94D305672F782F8827B85F39F085
:100A3000B93FCCF3869577956795B395D9F73EF492
:100A400090958095709561957F4F8F4F9F4F08953A
:100A5000E89409C097FB3EF4909580957095619558
:100A60007F4F8F4F9F4F9923A9F0F92F96E9BB270E
:100A70009395F695879577956795B795F111F8CF8A
:100A8000FAF4BB0F11F460FF1BC06F5F7F4F8F4FF5
:100A90009F4F16C0882311F096E911C0772321F0EB
:100AA0009EE8872F762F05C0662371F096E8862F83
:100AB00070E060E02AF09A95660F771F881FDAF7DA
:100AC000880F9695879597F90895990F0008550F07
:100AD000AA0BE0E8FEEF16161706E807F907C0F0C4
:100AE00012161306E407F50798F0621B730B840BCC
:100AF000950B39F40A2661F0232B242B252B21F4A6
:100B000008950A2609F4A140A6958FEF811D811D45
:100B1000089597F99F6780E870E060E008959FEF7F
:100B200080EC089500240A94161617061806090684
:100B3000089500240A941216130614060506089553
:100B4000092E0394000C11F4882352F0BB0F40F4DB
:100B5000BF2B11F460FF04C06F5F7F4F8F4F9F4F1B
:100B6000089557FD9058440F551F59F05F3F71F09D
:100B70004795880F97FB991F61F09F3F79F0879504
:100B80000895121613061406551FF2CF4695F1DF8D
:100B900008C0161617061806991FF1CF869571051D
:100BA000610508940895E894BB2766277727CB0151
:100BB00097F908950E94ED050C94A0050E949205F6
:100BC00038F00E94990520F0952311F00C948905C6
:100BD0000C948F0511240C94D4050E94B10570F378
:100BE000959FC1F3950F50E0551F629FF001729FD2
:100BF000BB27F00DB11D639FAA27F00DB11DAA1FE1
:100C0000649F6627B00DA11D661F829F2227B00D2D
:100C1000A11D621F739FB00DA11D621F839FA00DB8
:100C2000611D221F749F3327A00D611D231F849F08
:100C3000600D211D822F762F6A2F11249F5750405F
:100C40009AF0F1F088234AF0EE0FFF1FBB1F661FDA
:100C5000771F881F91505040A9F79E3F510580F0A3
:100C60000C9489050C94D4055F3FE4F3983ED4F3CB
:100C7000869577956795B795F795E7959F5FC1F747
:100C8000FE2B880F911D9695879597F90895A1E2FF
:100C90001A2EAA1BBB1BFD010DC0AA1FBB1FEE1FF6
:100CA000FF1FA217B307E407F50720F0A21BB30B41
:100CB000E40BF50B661F771F881F991F1A9469F7BD
:100CC00060957095809590959B01AC01BD01CF0119
:060CD0000895F894FFCF27
:100CD6005340420F000001000800400000010004DC
:00000001FF
