:100000000C942A000C9447000C9447000C94470071
:100010000C941D020C9447000C9447000C94F601BC
:100020000C9447000C9447000C94CF010C944700AB
:100030000C9447000C9447000C9447000C94470024
:100040000C9447000C9447000C9447000C94470014
:100050000C94470011241FBECFE5D8E0DEBFCDBF12
:1000600010E0A0E6B0E0EAEBF7E002C005900D92E8
:10007000A636B107D9F720E0A6E6B0E001C01D9290
:10008000AC36B207E1F70E9449000C94DB030C94F4
:100090000000CF93DF9300D000D000D0CDB7DEB703
:1000A00086E0E0E6F0E0DE01119601900D928A957F
:1000B000E1F783E00E94B70049815A816B817C811E
:1000C0008D819E810E94220160E081E40E94CF0028
:1000D00009811A812B813C814D815E8160E070E055
:1000E00080E89FE30E94650160E082E40E94CF0007
:1000F00009811A812B813C814D815E8160E070E035
:1001000080E89FE30E94650160E083E40E94CF00E5
:1001100009811A812B813C814D815E8160E070E014
:1001200080E89FE30E946501CFCF80FF05C09DB1AD
:100130009DB191609DB904C09DB19DB19E7F9DB957
:1001400081FF05C09DB19DB192609DB904C09DB174
:100150009DB19D7F9DB982FF05C08EB18EB181603A
:100160008EB908958EB18EB18E7F8EB9089597B3F2
:10017000906297BB97B3906897BB97B3906197BB1A
:1001800097B39F7B97BB98B3906198BB0E949500F3
:100190008DB180648DB98DB180618DB9089520E0F5
:1001A0000CC098B39F7E98BB8FB99EB1779BFDCF53
:1001B0009FB198B3906198BB2F5F621790F7089535
:1001C0008130910551F48EB581608EBD8EB58D7FE5
:1001D0008EBD8EB58B7F8EBD08958830910551F40C
:1001E0008EB58E7F8EBD8EB582608EBD8EB58B7FB7
:1001F0008EBD08958034910551F48EB581608EBD19
:100200008EB582608EBD8EB58B7F8EBD08958115B3
:1002100021E0920751F48EB58E7F8EBD8EB58D7F15
:100220008EBD8EB584608EBD08958115944049F4CD
:100230008EB581608EBD8EB58D7F8EBD8EB584608E
:100240008EBD0895CF93DF9300D000D000D0CDB7FE
:10025000DEB749835A836B837C838D839E839111A0
:1002600004C0E42FF0E0108223C0913089F489812A
:10027000833519F487B3886087BB8981853419F485
:1002800081B3806881BBE981F0E089E6808310C09A
:10029000923071F4E981EF3441F41FBC8EB588606F
:1002A0008EBD8EB58F7E8EBD03C0F0E088E080836A
:1002B00080E490E00E94E00026960FB6F894DEBF3E
:1002C0000FBECDBFDF91CF910895CF92DF92EF9215
:1002D000FF920F931F93CF93DF9300D000D000D0F5
:1002E000CDB7DEB709831A832B833C834D835E83AE
:1002F0000F3409F044C06B017C016A817B818C81E1
:100300009D810E94E002A70196010E946E0320E0F9
:1003100030E040E85CE30E946E039B01AC0160E0CA
:1003200070E080E897E40E9444020E94B1027DBD23
:100330006A817B818C819D810E94E002A7019601E8
:100340000E946E0320E030E040E85CE30E946E0310
:100350009B01AC0160E070E080E897E40E944402F9
:100360000E94B10221E0672B09F420E02CBD08B601
:1003700002FEFDCF88B7846088BF81E001C080E0C5
:1003800026960FB6F894DEBF0FBECDBFDF91CF919A
:100390001F910F91FF90EF90DF90CF9008951F92E3
:1003A0000F920FB60F9211242F933F934F935F93A9
:1003B0006F937F938F939F93AF93BF93EF93FF932D
:1003C000E0916600F09167000995FF91EF91BF9170
:1003D000AF919F918F917F916F915F914F913F91DD
:1003E0002F910F900FBE0F901F9018951F920F9294
:1003F0000FB60F9211242F933F934F935F936F93F8
:100400007F938F939F93AF93BF93EF93FF93E0916D
:100410006A00F0916B000995FF91EF91BF91AF9148
:100420009F918F917F916F915F914F913F912F910C
:100430000F900FBE0F901F9018951F920F920FB63E
:100440000F9211242F933F934F935F936F937F935A
:100450008F939F93AF93BF93EF93FF93E0916800C7
:10046000F09169000995FF91EF91BF91AF919F9134
:100470008F917F916F915F914F913F912F910F904D
:100480000FBE0F901F9018955058BB27AA270E94A7
:100490005C020C9434030E94260338F00E942D0362
:1004A00020F039F49F3F19F426F40C9423030EF442
:1004B000E095E7FB0C941D03E92F0E94450358F3D8
:1004C000BA17620773078407950720F079F4A6F539
:1004D0000C9467030EF4E0950B2EBA2FA02D0B01A0
:1004E000B90190010C01CA01A0011124FF27591B79
:1004F00099F0593F50F4503E68F11A16F040A22F7F
:10050000232F342F4427585FF3CF469537952795EF
:10051000A795F0405395C9F77EF41F16BA0B620BEE
:10052000730B840BBAF09150A1F0FF0FBB1F661F35
:10053000771F881FC2F70EC0BA0F621F731F841F78
:1005400048F4879577956795B795F7959E3F08F09E
:10055000B0CF9395880F08F09927EE0F9795879560
:1005600008950E944D0388F09F5798F0B92F99275E
:10057000B751B0F0E1F0660F771F881F991F1AF08E
:10058000BA95C9F714C0B13091F00E946703B1E089
:1005900008950C946703672F782F8827B85F39F088
:1005A000B93FCCF3869577956795B395D9F73EF427
:1005B00090958095709561957F4F8F4F9F4F0895CF
:1005C000E89409C097FB3EF49095809570956195ED
:1005D0007F4F8F4F9F4F9923A9F0F92F96E9BB27A3
:1005E0009395F695879577956795B795F111F8CF1F
:1005F000FAF4BB0F11F460FF1BC06F5F7F4F8F4F8A
:100600009F4F16C0882311F096E911C0772321F07F
:100610009EE8872F762F05C0662371F096E8862F17
:1006200070E060E02AF09A95660F771F881FDAF76E
:10063000880F9695879597F9089597F99F6780E8B1
:1006400070E060E008959FEF80EC089500240A9424
:100650001616170618060906089500240A9412169D
:100660001306140605060895092E0394000C11F4D0
:10067000882352F0BB0F40F4BF2B11F460FF04C07D
:100680006F5F7F4F8F4F9F4F089557FD9058440FD6
:10069000551F59F05F3F71F04795880F97FB991FE1
:1006A00061F09F3F79F0879508951216130614069E
:1006B000551FF2CF4695F1DF08C01616170618062B
:1006C000991FF1CF86957105610508940895E89406
:1006D000BB2766277727CB0197F908950E948103EE
:1006E0000C9434030E94260338F00E942D0320F05E
:1006F000952311F00C941D030C94230311240C94E6
:1007000068030E94450370F3959FC1F3950F50E075
:10071000551F629FF001729FBB27F00DB11D639FB3
:10072000AA27F00DB11DAA1F649F6627B00DA11D59
:10073000661F829F2227B00DA11D621F739FB00DFF
:10074000A11D621F839FA00D611D221F749F33276F
:10075000A00D611D231F849F600D211D822F762F08
:100760006A2F11249F5750409AF0F1F088234AF0E5
:10077000EE0FFF1FBB1F661F771F881F9150504051
:10078000A9F79E3F510580F00C941D030C9468035B
:100790005F3FE4F3983ED4F3869577956795B795D8
:1007A000F795E7959F5FC1F7FE2B880F911D9695F2
:0A07B000879597F90895F894FFCF9C
:0607BA004F40420F000059
:00000001FF
