:100000000C942A000C9447000C9447000C94470071
:100010000C9414080C9447000C9447000C94ED07C2
:100020000C9447000C9447000C94C6070C944700AE
:100030000C9447000C9447000C9447000C94470024
:100040000C9447000C9447000C9447000C94470014
:100050000C94470011241FBECFE5D8E0DEBFCDBF12
:1000600010E0A0E6B0E0EAE3F5E102C005900D92F1
:10007000AA3DB107D9F720E0AAEDB0E001C01D927A
:10008000A63EB207E1F70E94CE020C949B0A0C94A4
:1000900000008091DE00813029F48091DB008F5FC9
:1000A0008093DB008091DD008F5F8093DD000895F9
:1000B00081E00E94350244E850E061E080E00E9467
:1000C000C3020895FB019DEC899F912D1124969503
:1000D000969596959083911104C0805D80831182DE
:1000E0000895392F330F232F220F220F230F821B46
:1000F000905D9083805D818312820895CF93DF931A
:1001000000D0CDB7DEB70E949B028FE890E00E943E
:10011000B002BE016F5F7F4F8091DF000E946200DE
:10012000AE014F5F5F4F60E081E00E94C3020F901D
:100130000F90DF91CF910895EF92FF920F931F934D
:100140000E944602409160005091610060916200FF
:100150007091630080916400909165000E94360464
:1001600042E060E08BE30E94B3010F2EF9E4EF2E32
:10017000F0E0FF2EF02D00916000109161002091C1
:10018000620030916300409164005091650060E02E
:1001900070E080E090E40E9430061092DD00109242
:1001A000DF001092DE001092DB001092DC000E9453
:1001B0007E001F910F91FF90EF900895CF93DF93F2
:1001C00000D0CDB7DEB70E949B0241EA50E060E06C
:1001D00080E00E94C3024EEA50E060E081E00E94AD
:1001E000C302BE016F5F7F4F80E00E946200AE01DC
:1001F0004F5F5F4F6DE081E00E94C3020F900F9050
:10020000DF91CF910895CF93DF9300D0CDB7DEB7C4
:100210000E949B0241EA50E060E080E00E94C3023D
:100220004BEB50E060E081E00E94C302BE016F5FD3
:100230007F4F8FE00E946200AE014F5F5F4F6DE025
:1002400081E00E94C3020F900F90DF91CF9108953B
:10025000CF93DF9300D0CDB7DEB781E00E943502A7
:1002600045EC50E061E080E00E94C3024EEC50E0BB
:1002700060E081E00E94C302BE016F5F7F4F80910A
:10028000DC000E946200AE014F5F5F4F6CE081E0D6
:100290000E94C3020F900F90DF91CF910895CF93EA
:1002A000DF9300D0CDB7DEB7BE016F5F7F4F809187
:1002B000DF000E946200AE014F5F5F4F60E081E0AF
:1002C0000E94C3020F900F90DF91CF91089585E0B7
:1002D0008093DC008091DD00823040F08091DE0070
:1002E000811104C00E94DE001092DD0042E060E057
:1002F0008BE30E94C9018130F1F48091DE0081110D
:1003000005C081E08093DE000E947E001092DB0039
:100310008091DF008F5F8093DF00803138F00E9492
:1003200003011092DF001092DE0008951092DD00AC
:100330000E944F0108958091DB00823098F09091E7
:10034000DC008091DF00981303C00E94580002C0B7
:100350000E9428011092DE001092DF001092DB0054
:100360001092DD000895423019F40E94D3020895DE
:1003700040E00E94D3020895413021F40E944A03D4
:10038000982F05C00E944A0391E0811190E0892FC7
:1003900008950E94BC019091DA00891302C092E096
:1003A00001C0982F8093DA00892F0895CF93C82F2A
:1003B000482F417064E085E30E941203C1FB44278B
:1003C00040F965E085E30E941203C2FB442740F92F
:1003D00066E085E30E941203C3FB442740F967E00F
:1003E00085E30E941203CF910895CF93C82F84FB19
:1003F000442740F964E085E30E941203C5FB4427CB
:1004000040F965E085E30E941203C6FB442740F9EA
:1004100066E085E30E9412034C2F441F4427441FCB
:1004200067E085E30E941203CF9108950F931F9315
:1004300063E085E30E942F0300916600109167003E
:10044000209168003091690040916A0050916B00E2
:100450006DEB77E386E895E30E94750463E085E33E
:100460000E943C031F910F910895CF93C82F0E94C3
:10047000F50161E085E30E943C030E9416028C2F87
:100480000E94D6010E941602CF9108954091660005
:1004900050916700609168007091690080916A00D6
:1004A00090916B000E94360441E064E085E30E9475
:1004B000D30241E065E085E30E94D30241E066E0BB
:1004C00085E30E94D30241E067E085E30E94D30206
:1004D00041E061E085E30E94D30241E063E085E30F
:1004E0000E94D30241E062E085E30E94D30282E0F1
:1004F0000E94350288E20E9435028CE00E9435029B
:1005000086E00E94350281E00E9435020895603144
:1005100088F4823078F4811106C0862F8F7080684D
:100520000E9435020895813029F4862F8F70806CE7
:100530000E943502089581E00E9435020895CF930C
:10054000C82F0E94F50161E085E30E942F030E94FD
:1005500016028C2F0E94D6010E941602CF91089598
:100560000F931F93CF938C01C0E003C00E949F02A2
:10057000CF5FF801EC0FF11D80818111F7CFCF9192
:100580001F910F910895CF93DF93EA010E94870294
:10059000CE010E94B002DF91CF9108950E949C008D
:1005A0000E946701FDCF413069F4E82FF0E022910D
:1005B00081E090E002C0880F991F6A95E2F7822BD4
:1005C00080830895411116C0E82FF0E0DF012E91DD
:1005D00081E090E002C0880F991F6A95E2F7982F9A
:1005E000909592239C9390B7946090BF9081892BB3
:1005F000808308954230A9F4E82FF0E0DF012E91C6
:1006000081E090E002C0880F991F6A95E2F7982F69
:10061000909592239C9390B79B7F90BF9081892B5C
:1006200080830895413069F4E82FF0E0208181E073
:1006300090E002C0880F991F6A95E2F7822B8083B1
:100640000895E82FF0E0208181E090E002C0880F5B
:10065000991F6A95E2F78095822380830895E82F99
:10066000F0E0808121E030E002C0220F331F6A9564
:10067000E2F7282B20830895E82FF0E0808121E025
:1006800030E002C0220F331F6A95E2F7209528233D
:1006900020830895E82FF0E03297808190E002C037
:1006A000959587956A95E2F7817008958130910557
:1006B00051F483B7816083BF83B78D7F83BF83B7D6
:1006C0008B7F83BF08958830910551F483B78E7F67
:1006D00083BF83B7826083BF83B78B7F83BF089557
:1006E0008034910551F483B7816083BF83B7826002
:1006F00083BF83B78B7F83BF0895811521E0920765
:1007000051F483B78E7F83BF83B78D7F83BF83B759
:10071000846083BF08958115944049F483B7816054
:1007200083BF83B78D7F83BF83B7846083BF089502
:100730008130910551F48EB581608EBD8EB58D7F6F
:100740008EBD8EB58B7F8EBD08958830910551F496
:100750008EB58E7F8EBD8EB582608EBD8EB58B7F41
:100760008EBD08958034910551F48EB581608EBDA3
:100770008EB582608EBD8EB58B7F8EBD089581153E
:1007800021E0920751F48EB58E7F8EBD8EB58D7FA0
:100790008EBD8EB584608EBD08958115944049F458
:1007A0008EB581608EBD8EB58D7F8EBD8EB5846019
:1007B0008EBD08958130910551F485B5816085BD68
:1007C00085B58D7F85BD85B58B7F85BD08958830C6
:1007D000910551F485B58E7F85BD85B5826085BD57
:1007E00085B58B7F85BD08958032910551F485B51F
:1007F000816085BD85B5826085BD85B58B7F85BDF2
:1008000008958034910551F485B58E7F85BD85B5F9
:100810008D7F85BD85B5846085BD0895803891053F
:1008200051F485B5816085BD85B58D7F85BD85B564
:10083000846085BD0895811521E0920751F485B546
:100840008E7F85BD85B5826085BD85B5846085BD9B
:1008500008958115944049F485B5816085BD85B5BD
:10086000826085BD85B5846085BD0895CF93DF9393
:1008700000D000D000D0CDB7DEB749835A836B8358
:100880007C838D839E83911104C0E42FF0E010825D
:1008900023C0913089F48981833519F487B3886046
:1008A00087BB8981853419F481B3806881BBE98174
:1008B000F0E089E6808310C0923071F4E981EF3472
:1008C00041F41FBC8EB588608EBD8EB58F7E8EBD07
:1008D00003C0F0E088E0808326960FB6F894DEBF70
:1008E0000FBECDBFDF91CF9108954F925F926F926F
:1008F0007F928F929F92AF92BF92CF92DF92EF92B0
:10090000FF920F931F93CF93DF93CDB7DEB72A9754
:100910000FB6F894DEBF0FBECDBF6B017C0109831B
:100920001A832B833C834D835E83033509F071C0AA
:1009300037C06A817B818C819D81E12FF0E0EE0FD1
:10094000FF1FE658FF4FA080B180950140E050E0C6
:100950000E94790A842F952F422E532E642E752ED5
:10096000622F732F0E9455096F83788789879A8732
:10097000A701960160E070E08FE793E40E94AD0864
:100980009B01AC016F81788589859A850E94A808B2
:10099000882324F445284628472849F41F5F01C0CE
:1009A00010E0153030F201E010E080E002C0850177
:1009B00081E0882309F438C1C8010E9456036A8186
:1009C0007B818C819D810E945509A70196010E941F
:1009D0000C0A6B017C01B80180E090E00E9455098F
:1009E0009B01AC01C701B6010E94AD089B01AC019F
:1009F00060E070E08FE793E40E943B080E941F09CB
:100A000062BF08B600FEFDCF88B7816088BF81E075
:100A100010C1053409F071C037C06A817B818C81B7
:100A20009D81E12FF0E0EE0FFF1FE459FF4FA08002
:100A3000B180950140E050E00E94790A842F952F03
:100A4000422E532E642E752E622F732F0E9455094D
:100A50006F83788789879A87A701960160E070E0A5
:100A60008FE793E40E94AD089B01AC016F8178850C
:100A700089859A850E94A808882324F44528462859
:100A8000472849F41F5F01C010E0173030F201E041
:100A900010E080E002C0850181E0882309F4C6C02F
:100AA000C8010E94DA036A817B818C819D810E944A
:100AB0005509A70196010E940C0A6B017C01B8013F
:100AC00080E090E00E9455099B01AC01C701B6018E
:100AD0000E94AD089B01AC0160E070E08FE793E4F9
:100AE0000E943B080E941F0964BD08B606FEFDCFA8
:100AF00088B7806488BF81E09CC00F34E9F180E052
:100B000098C06A817B818C819D81E12FF0E0EE0F9E
:100B1000FF1FE658FF4FA080B180950140E050E0F4
:100B20000E94790A29013A01B90180E090E00E940F
:100B300055096F83788789879A87A701960160E0B6
:100B400070E080E897E40E94AD089B01AC016F81E2
:100B5000788589859A850E94A80888235CF4C3015A
:100B6000B2010E94550920E030E0A9010E94070A65
:100B700018164CF01F5F01C010E0153010F201E0B4
:100B800010E080E002C0850181E0882309F450C0B4
:100B9000C8010E9498036A817B818C819D810E949B
:100BA0005509A70196010E940C0A2B013C01B801CE
:100BB00080E090E00E9455094B015C019B01AC0173
:100BC000C301B2010E94AD089B01AC0160E070E07E
:100BD00080E897E40E943B080E9426097DBD6A8157
:100BE0007B818C819D810E945509A70196010E94FD
:100BF0000C0AA50194010E94AD089B01AC0160E0C4
:100C000070E080E897E40E943B080E94260921E0FA
:100C1000672B09F420E02CBD08B602FEFDCF88B793
:100C2000846088BF81E005C080E003C080E001C02F
:100C300080E02A960FB6F894DEBF0FBECDBFDF91DD
:100C4000CF911F910F91FF90EF90DF90CF90BF90C9
:100C5000AF909F908F907F906F905F904F9008958E
:100C60004F925F926F927F928F929F92AF92BF92BC
:100C7000CF92DF92EF92FF920F931F93CF93DF9368
:100C800000D000D000D0CDB7DEB709831A832B8304
:100C90003C834D835E83523009F058C197016B014C
:100CA0007C018FB780688FBF8981833509F066C06A
:100CB00089B7826089BF3093E1002093E00010E0A3
:100CC00033C06A817B818C819D810E945509A70177
:100CD00096010E940C0A2B013C01E12FF0E0EE0F7F
:100CE000FF1FE658FF4FA080B180B50180E090E083
:100CF0000E9455099B01AC01C301B2010E94AD08DD
:100D00002B013C0120E030E04FE753E40E94A808AB
:100D100088234CF420E030E0A901C301B2010E9415
:100D2000070A18163CF01F5F153058F201E010E07A
:100D300080E002C0850181E0882309F409C1C8016F
:100D40000E9456036A817B818C819D810E94550996
:100D5000A70196010E940C0A6B017C01B80180E09A
:100D600090E00E9455099B01AC01C701B6010E94A9
:100D7000AD080E941F096CBF81E0F1C0853409F005
:100D800066C089B7806889BF3093E3002093E20092
:100D900010E033C06A817B818C819D810E9455095E
:100DA000A70196010E940C0A2B013C01E12FF0E003
:100DB000EE0FFF1FE459FF4FA080B180B50180E026
:100DC00090E00E9455099B01AC01C301B2010E9451
:100DD000AD082B013C0120E030E04FE753E40E94D6
:100DE000A80888234CF420E030E0A901C301B20137
:100DF0000E94070A18163CF01F5F173058F201E0F6
:100E000010E080E002C0850181E0882309F4A2C0DF
:100E1000C8010E94DA036A817B818C819D810E94D6
:100E20005509A70196010E940C0A6B017C01B801CB
:100E300080E090E00E9455099B01AC01C701B6011A
:100E40000E94AD080E941F0963BD81E088C08F34F5
:100E500009F082C089B7806189BF3093E500209393
:100E6000E40010E033C06A817B818C819D810E9407
:100E70005509A70196010E940C0A2B013C01E12FA4
:100E8000F0E0EE0FFF1FE658FF4FA080B180B501E4
:100E900080E090E00E9455099B01AC01C301B201C2
:100EA0000E94AD082B013C0120E030E040E857E40F
:100EB0000E94A80888234CF420E030E0A901C30177
:100EC000B2010E94070A18163CF01F5F153058F255
:100ED00001E010E080E002C0850181E08823F1F1AB
:100EE000C8010E9498036A817B818C819D810E9448
:100EF0005509A70196010E940C0A2B013C01B8017B
:100F000080E090E00E9455094B015C019B01AC011F
:100F1000C301B2010E94AD080E9426097BBD6A810F
:100F20007B818C819D810E945509A70196010E94B9
:100F30000C0AA50194010E94AD080E94260921E037
:100F4000672B09F420E02ABD81E009C080E007C0DA
:100F500080E005C080E003C080E001C080E026960C
:100F60000FB6F894DEBF0FBECDBFDF91CF911F91BA
:100F70000F91FF90EF90DF90CF90BF90AF909F9038
:100F80008F907F906F905F904F9008951F920F9277
:100F90000FB60F9211242F933F934F935F936F934C
:100FA0007F938F939F93AF93BF93EF93FF93E091C2
:100FB000E000F091E1000995FF91EF91BF91AF91B1
:100FC0009F918F917F916F915F914F913F912F9161
:100FD0000F900FBE0F901F9018951F920F920FB693
:100FE0000F9211242F933F934F935F936F937F93AF
:100FF0008F939F93AF93BF93EF93FF93E091E400A0
:10100000F091E5000995FF91EF91BF91AF919F910C
:101010008F917F916F915F914F913F912F910F90A1
:101020000FBE0F901F9018951F920F920FB60F9240
:1010300011242F933F934F935F936F937F938F93DD
:101040009F93AF93BF93EF93FF93E091E200F091F2
:10105000E3000995FF91EF91BF91AF919F918F911F
:101060007F916F915F914F913F912F910F900FBEA4
:101070000F901F9018955058BB27AA270E9453081D
:101080000C94CD090E94BF0938F00E94C60920F0D7
:1010900039F49F3F19F426F40C94BC090EF4E09542
:1010A000E7FB0C94B609E92F0E94DE0958F3BA1742
:1010B000620773078407950720F079F4A6F50C946E
:1010C000000A0EF4E0950B2EBA2FA02D0B01B901EA
:1010D00090010C01CA01A0011124FF27591B99F0AE
:1010E000593F50F4503E68F11A16F040A22F232FBA
:1010F000342F4427585FF3CF469537952795A7950A
:10110000F0405395C9F77EF41F16BA0B620B730BB0
:10111000840BBAF09150A1F0FF0FBB1F661F771F21
:10112000881FC2F70EC0BA0F621F731F841F48F4D6
:10113000879577956795B795F7959E3F08F0B0CF5F
:101140009395880F08F09927EE0F97958795089546
:101150000E94920908F481E008950E94C1080C944D
:10116000CD090E94C60958F00E94BF0940F029F439
:101170005F3F29F00C94B60951110C94010A0C94AC
:10118000BC090E94DE0968F39923B1F3552391F35A
:10119000951B550BBB27AA2762177307840738F0E6
:1011A0009F5F5F4F220F331F441FAA1FA9F335D043
:1011B0000E2E3AF0E0E832D091505040E695001CF7
:1011C000CAF72BD0FE2F29D0660F771F881FBB1FB1
:1011D000261737074807AB07B0E809F0BB0B802D8F
:1011E000BF01FF2793585F4F3AF09E3F510578F0BB
:1011F0000C94B6090C94010A5F3FE4F3983ED4F3D3
:10120000869577956795B795F7959F5FC9F7880F8E
:10121000911D9695879597F90895E1E0660F771FE0
:10122000881FBB1F621773078407BA0720F0621B71
:10123000730B840BBA0BEE1F88F7E09508950E949C
:1012400026096894B1110C94010A08950E94E609D8
:1012500088F09F5798F0B92F9927B751B0F0E1F077
:10126000660F771F881F991F1AF0BA95C9F714C027
:10127000B13091F00E94000AB1E008950C94000A88
:10128000672F782F8827B85F39F0B93FCCF3869560
:1012900077956795B395D9F73EF4909580957095BD
:1012A00061957F4F8F4F9F4F0895E89409C097FB3A
:1012B0003EF490958095709561957F4F8F4F9F4F2D
:1012C0009923A9F0F92F96E9BB279395F695879571
:1012D00077956795B795F111F8CFFAF4BB0F11F434
:1012E00060FF1BC06F5F7F4F8F4F9F4F16C08823DB
:1012F00011F096E911C0772321F09EE8872F762F11
:1013000005C0662371F096E8862F70E060E02AF051
:101310009A95660F771F881FDAF7880F969587953D
:1013200097F90895990F0008550FAA0BE0E8FEEF12
:1013300016161706E807F907C0F012161306E40799
:10134000F50798F0621B730B840B950B39F40A2692
:1013500061F0232B242B252B21F408950A2609F470
:10136000A140A6958FEF811D811D089597F99F6774
:1013700080E870E060E008959FEF80EC089500241D
:101380000A941616170618060906089500240A94EA
:1013900012161306140605060895092E0394000C70
:1013A00011F4882352F0BB0F40F4BF2B11F460FFFF
:1013B00004C06F5F7F4F8F4F9F4F089557FD905828
:1013C000440F551F59F05F3F71F04795880F97FB09
:1013D000991F61F09F3F79F08795089512161306C3
:1013E0001406551FF2CF4695F1DF08C016161706F2
:1013F0001806991FF1CF8695710561050894089527
:10140000E894BB2766277727CB0197F908950E94B8
:10141000920908F48FEF08950E941F0A0C94CD09D9
:101420000E94BF0938F00E94C60920F0952311F0F0
:101430000C94B6090C94BC0911240C94010A0E9466
:10144000DE0970F3959FC1F3950F50E0551F629F21
:10145000F001729FBB27F00DB11D639FAA27F00D0D
:10146000B11DAA1F649F6627B00DA11D661F829F34
:101470002227B00DA11D621F739FB00DA11D621F19
:10148000839FA00D611D221F749F3327A00D611D36
:10149000231F849F600D211D822F762F6A2F112418
:1014A0009F5750409AF0F1F088234AF0EE0FFF1F4B
:1014B000BB1F661F771F881F91505040A9F79E3FA2
:1014C000510580F00C94B6090C94010A5F3FE4F3D7
:1014D000983ED4F3869577956795B795F795E795F8
:1014E0009F5FC1F7FE2B880F911D9695879597F901
:1014F0000895A1E21A2EAA1BBB1BFD010DC0AA1F55
:10150000BB1FEE1FFF1FA217B307E407F50720F06C
:10151000A21BB30BE40BF50B661F771F881F991FE7
:101520001A9469F760957095809590959B01AC0130
:0A153000BD01CF010895F894FFCF2C
:10153A004F40420F00025340420F000001000800D2
:10154A002000400080000001000401000800400063
:10155A0000010004594F552057494E2121210047C7
:10156A007565737320746865206E756D6265722087
:10157A0000456E746572206E756D62657200477201
:10158A006561746572207468616E006C657373209E
:10159A007468616E00594F55204C4F5345004E7583
:0A15AA006D62657220697320000075
:00000001FF
