:100000000C942A000C9447000C9447000C94470071
:100010000C9447000C9447000C9447000C94470044
:100020000C9447000C9447000C9447000C94470034
:100030000C9447000C944B010C9447000C947501F0
:100040000C9447000C9447000C9447000C94470014
:100050000C94470011241FBECFE5D8E0DEBFCDBF12
:1000600010E0A0E6B0E0E6E8F3E002C005900D92F3
:10007000AC36B107D9F720E0ACE6B0E001C01D9284
:10008000A037B207E1F70E9449000C94C1010C941B
:100090000000CF93DF93CDB7DEB7CA50D1400FB683
:1000A000F894DEBF0FBECDBF8BE0E0E6F0E0DE01EE
:1000B000119601900D928A95E1F7E980FA800B8103
:1000C0001C812D813E814F81588569857A858B857C
:1000D0000E94A9000E947500CE010C960E948D001E
:1000E000CE010C960E943801F7CF87B38F7D87BB76
:1000F00087B38F7787BB87B38F7E87BB87B38064D7
:1001000087BB8DB180648DB98DB18F7E8DB9089517
:100110008EB1779BFDCF8FB10895EF92FF920F9331
:100120001F93CF937C01C0E00CC087010C0F111D01
:100130000E948800F80180838D3011F4108203C082
:10014000CF5FCF3F91F7CF911F910F91FF90EF902D
:100150000895EF92FF920F931F93CF93DF93CDB744
:10016000DEB72B970FB6F894DEBF0FBECDBFE98286
:10017000FA820B831C832D833E834F8358876987C4
:100180007A878B8769817A818B819C810D811E8121
:100190002F813885000F111F221F331F000F111FE1
:1001A000221F331FA9019801220F331F441F551F1F
:1001B000220F331F441F551F0E949F0121503109F8
:1001C0008AB180618AB98AB188608AB929B980B553
:1001D0008F7780BD30BD80B5806880BD80B58F7B56
:1001E00080BD8985813039F480B5806280BD80B55D
:1001F0008F7E80BD11C0811107C080B5806280BD37
:1002000080B5806180BD08C0823031F480B58F7DBB
:1002100080BD80B58F7E80BD80B5826080BD80B599
:10022000846080BD8A85811106C08FB780688FBFCA
:100230008AB180688AB98B85811106C08FB78068C2
:100240008FBF8AB180648AB92B960FB6F894DEBF4F
:100250000FBECDBFDF91CF911F910F91FF90EF9017
:1002600008955D9BFECF8CB98BB180648BB90895E6
:100270000F931F93CF938C01C0E003C00E94310104
:10028000CF5FF801EC0FF11D80818111F7CFCF9185
:100290001F910F9108951F920F920FB60F92112484
:1002A0002F933F934F935F936F937F938F939F937E
:1002B000AF93BF93EF93FF93E0916C00F0916D00CB
:1002C00009958BB180688BB9FF91EF91BF91AF9188
:1002D0009F918F917F916F915F914F913F912F915E
:1002E0000F900FBE0F901F9018951F920F920FB690
:1002F0000F9211242F933F934F935F936F937F93AC
:100300008F939F93AF93BF93EF93FF93E0916E0012
:10031000F0916F0009958BB180648BB9FF91EF91DB
:10032000BF91AF919F918F917F916F915F914F910D
:100330003F912F910F900FBE0F901F901895A1E243
:100340001A2EAA1BBB1BFD010DC0AA1FBB1FEE1F4F
:10035000FF1FA217B307E407F50720F0A21BB30B9A
:10036000E40BF50B661F771F881F991F1A9469F716
:1003700060957095809590959B01AC01BD01CF0172
:060380000895F894FFCF80
:0C03860040420F00C01200000201010004
:00000001FF
