S01200004932435F4472697665722E7372656389
S11300000C946B000C9475000C9475000C947500A2
S11300100C9475000C9475000C9475000C94750088
S11300200C9475000C9475000C9475000C94750078
S11300300C9475000C9475000C9475000C94750068
S11300400C9475000C9475000C9475000C94750058
S11300500C94750007634236B79BD8A71A396856C3
S113006018AEBAAB558C1D3CB7CC5763BD6DEDFDD6
S1130070753EF6177231BF000000803F0800000093
S1130080BE922449123EABAAAA2ABECDCCCC4C3E89
S113009000000080BEABAAAAAA3E00000000BF0078
S11300A00000803F0000000000084178D3BB438774
S11300B0D1133D190E3CC3BD4282AD2B3E68EC8288
S11300C076BED98FE1A93E4C80EFFFBE01C4FF7F0D
S11300D03F000000000011241FBECFE5D8E0DEBFC2
S11300E0CDBF0E9477000C9434050C94000048EEB8
S11300F053E060E070E080E00E94990080E20E949A
S113010036012FE38DE093E0215080409040E1F7E9
S113011000C0000087E70E9413012FE38DE093E005
S1130120215080409040E1F700C000000E94290166
S1130130F1CF8F929F92AF92BF92CF92DF92EF92C4
S1130140FF92CF939A01AB01682F70E080E090E0BA
S11301500E94120569017A0180E1C81AD108E108F8
S1130160F108C701B6012EEF31E040E050E00E94F3
S11301701205CA01B9010E946E0228E132E741EB7F
S11301805FE30E9420034B015C0120E030E0A90101
S11301900E94C8018823D4F1C0E012C06C2F70E023
S11301A080E090E00E946E029B01AC01C501B401A5
S11301B00E94C80118161CF0C1B981E004C0CF5FC9
S11301C0C53060F380E0813019F56C2F70E080E079
S11301D090E00E946E029B01AC0160E070E080E858
S11301E090E40E948D039B01AC010E945C014B01D1
S11301F05C01C701B6010E946E02A50194010E9430
S1130200CD010E943F0260B981E003C080E001C0DB
S113021080E0CF91FF90EF90DF90CF90BF90AF90B0
S11302209F908F90089583B986B7846086BF86B700
S1130230806886BF06B607FEFDCF81B1887F88320D
S113024021F0803321F481E0089580E0089582E074
S1130250089586B7846086BF86B7806886BF86B7F0
S1130260806186BF06B604FCFDCF0895CF93C82FE6
S113027086B7806286BF86B7846086BF86B780688B
S113028086BF06B607FEFDCF81B1887F883081F72F
S1130290C3B986B7846086BF86B7806886BF06B652
S11302A007FEFDCF81B1887F883119F00E942901B2
S11302B0DFCFCF9108955058BB27AA270E9473011E
S11302C00C94E6020E94D80238F00E94DF0220F06B
S11302D039F49F3F19F426F40C94D5020EF4E095FA
S11302E0E7FB0C94CF02E92F0E94F70258F3BA17E8
S11302F0620773078407950720F079F4A6F50C9438
S113030019030EF4E0950B2EBA2FA02D0B01B901A1
S113031090010C01CA01A0011124FF27591B99F077
S1130320593F50F4503E68F11A16F040A22F232F83
S1130330342F4427585FF3CF469537952795A795D3
S1130340F0405395C9F77EF41F16BA0B620B730B7A
S1130350840BBAF09150A1F0FF0FBB1F661F771FEB
S1130360881FC2F70EC0BA0F621F731F841F48F4A0
S1130370879577956795B795F7959E3F08F0B0CF29
S11303809395880F08F09927EE0F97958795089510
S11303900E94AB0208F481E008950E94E1010C94EC
S11303A0E6020E94DF0258F00E94D80240F029F4CD
S11303B05F3F29F00C94CF0251110C941A030C9452
S11303C0D5020E94F70268F39923B1F3552391F300
S11303D0951B550BBB27AA2762177307840738F0B0
S11303E09F5F5F4F220F331F441FAA1FA9F335D00D
S11303F00E2E3AF0E0E832D091505040E695001CC1
S1130400CAF72BD0FE2F29D0660F771F881FBB1F7A
S1130410261737074807AB07B0E809F0BB0B802D58
S1130420BF01FF2793585F4F3AF09E3F510578F084
S11304300C94CF020C941A035F3FE4F3983ED4F378
S1130440869577956795B795F7959F5FC9F7880F58
S1130450911D9695879597F90895E1E0660F771FAA
S1130460881FBB1F621773078407BA0720F0621B3B
S1130470730B840BBA0BEE1F88F7E09508950E9466
S1130480FF0288F09F5798F0B92F9927B751B0F021
S1130490E1F0660F771F881F991F1AF0BA95C9F704
S11304A014C0B13091F00E941903B1E008950C9486
S11304B01903672F782F8827B85F39F0B93FCCF339
S11304C0869577956795B395D9F73EF49095809581
S11304D0709561957F4F8F4F9F4F0895E89409C0A1
S11304E097FB3EF490958095709561957F4F8F4F63
S11304F09F4F9923A9F0F92F96E9BB279395F69579
S1130500879577956795B795F111F8CFFAF4BB0FF6
S113051011F460FF1BC06F5F7F4F8F4F9F4F16C05A
S1130520882311F096E911C0772321F09EE8872FE4
S1130530762F05C0662371F096E8862F70E060E0A0
S11305402AF09A95660F771F881FDAF7880F969519
S1130550879597F90895990F0008550FAA0BE0E8BD
S1130560FEEF16161706E807F907C0F01216130671
S1130570E407F50798F0621B730B840B950B39F4B1
S11305800A2661F0232B242B252B21F408950A2617
S113059009F4A140A6958FEF811D811D089597F957
S11305A09F6780E870E060E008959FEF80EC089515
S11305B000240A941616170618060906089500243E
S11305C00A9412161306140605060895092E0394B8
S11305D0000C11F4882352F0BB0F40F4BF2B11F42C
S11305E060FF04C06F5F7F4F8F4F9F4F089557FD8B
S11305F09058440F551F59F05F3F71F04795880F8D
S113060097FB991F61F09F3F79F087950895121623
S113061013061406551FF2CF4695F1DF08C01616CF
S113062017061806991FF1CF869571056105089480
S11306300895E894BB2766277727CB0197F9089597
S11306400E9433030C94E6020E94D80238F00E9400
S1130650DF0220F0952311F00C94CF020C94D50204
S113066011240C941A030E94F70270F3959FC1F3AE
S1130670950F50E0551F629FF001729FBB27F00D4C
S1130680B11D639FAA27F00DB11DAA1F649F6627A1
S1130690B00DA11D661F829F2227B00DA11D621FF0
S11306A0739FB00DA11D621F839FA00D611D221FAA
S11306B0749F3327A00D611D231F849F600D211D8E
S11306C0822F762F6A2F11249F5750409AF0F1F011
S11306D088234AF0EE0FFF1FBB1F661F771F881F7A
S11306E091505040A9F79E3F510580F00C94CF02E1
S11306F00C941A035F3FE4F3983ED4F38695779500
S11307006795B795F795E7959F5FC1F7FE2B880F1F
S1130710911D9695879597F90895FA01EE0FFF1F9D
S1130720309621053105A1F16115710561F4803818
S1130730BFE39B0749F168949038810561F08038E4
S1130740BFEF9B0741F099234AF5FF3FE1053105CF
S1130750210519F1E8940894E795D901AA2329F40D
S1130760AB2FBE2FF85FD0F310C0FF5F70F4A695D7
S1130770E0F7F73950F019F0FF3A38F49F779F9378
S11307800DD00F9007FC9058089546F00C94D502B4
S113079060E070E080E89FE308954FE79F775F9300
S11307A04F933F932F930E9488042F913F914F9131
S11307B05F910E9420030C94E50329F416F00C9435
S11307C0CF020C9419030C94D5020E94FF02A8F3E3
S11307D09638A0F707F80F92E8942BE33AEA48EB2F
S11307E05FE70E9436030F920F920F924DB75EB7E8
S11307F00F920E94D004E4E5F0E00E9417044F91A8
S11308005F91EF91FF91E595EE1FFF1F49F0FE57B1
S1130810E0684427EE0F441FFA95E1F74195550B24
S11308200E944A040F9007FE0C943E040895DF933F
S1130830CF931F930F93FF92EF92DF927B018C0172
S1130840689406C0DA2EEF010E943303FE01E89497
S1130850A5912591359145915591A6F3EF010E94FB
S11308607301FE019701A801DA9469F7DF90EF9014
S1130870FF900F911F91CF91DF9108959B01AC01DF
S113088060E070E080E89FE30C94CD010C94CF020B
S11308900C9404050E94FF02D8F39923C9F3940F22
S11308A0511DA3F39150504094F059F0882332F035
S11308B0660F771F881F91505040C1F79E3F510526
S11308C02CF7880F911D9695879597F908955F3FAA
S11308D0ACF0983E9CF0BB27869577956795B795C5
S11308E008F4B1609395C1F7BB0F58F711F460FF9A
S11308F0E8CF6F5F7F4F8F4F9F4FE3CF0C941A0366
S113090016F00C9404050C94D50268940C94CF0250
S11309100E94FF02A8F39923C1F3AEF3DF93CF93B0
S11309201F930F93FF92C92FDD2788232AF0219765
S1130930660F771F881FDAF720E030E040E85FEBAE
S11309409FE3883920F0803E38F021968F770E940B
S11309505C01ECE7F0E004C00E945C01E9EAF0E02D
S11309600E9417048B01BE01EC01FB2E6F57710925
S11309707595771F880B990B0E94700228E132E766
S113098041E35FE30E943303AF2D9801AE01FF9072
S11309900F911F91CF91DF910E9473010C94E60295
S11309A0FA01DC01AA0FBB1F9B01AC01BF5728F45D
S11309B0222733274427507820C0B75190F4AB2F17
S11309C00024469537952795011CA395D2F3002062
S11309D071F0220F331F441FB395DAF30ED00C9439
S11309E05B0161307105A0E88A07B94630F49B01C8
S11309F0AC016627772788279078309621F02083EA
S1130A0031834283538308959F3F31F0915020F402
S1130A10879577956795B795880F911D96958795D6
S1130A2097F90895A1E21A2EAA1BBB1BFD010DC064
S1130A30AA1FBB1FEE1FFF1FA217B307E407F5078A
S1130A4020F0A21BB30BE40BF50B661F771F881F66
S1130A50991F1A9469F760957095809590959B01FC
S10F0A60AC01BD01CF010895F894FFCF54
S9030000FC
